:060000000A128A11122809
:10000800FE00030EF1000408F2000A08F300831250
:1000180003137F08F4000A128A116D290A128A1143
:1000280090298316031386018701850106309F00F6
:1000380007308100A0308B003D308312031381000C
:10004800F601F7012728E83083120313B6000330BE
:10005800B7007708B901B9077608B801B8070A12D6
:100068008A11A9200A128A11831203133608BE00C6
:100078003E08BF006430B6000030B7007708B4010E
:10008800B4077608B301B307E830B1000330B20013
:100098000A128A11F9200A128A11831203133208EC
:1000A800B901B9073108B801B8070A128A11A9209D
:1000B8000A128A11831203133608BE003E08C000D4
:1000C8000A30B6000030B7007708B401B4077608E4
:1000D800B301B3076430B1000030B2000A128A11CC
:1000E800F9200A128A11831203133208B901B907D9
:1000F8003108B801B8070A128A11A9200A128A1110
:10010800831203133608BE003E08C1000A30B1004E
:100118000030B2007708B401B4077608B301B3071A
:100128000A128A11F9200A128A118312031331085C
:10013800BE003E08C2000A128A113F210A128A1123
:10014800272827280A128A11122883120313BB01B1
:10015800BC01370836040319B228B328F128BD01B9
:100168000314BD0DC32801300310B60DB70DFF3EB3
:10017800031DB8280130BA003A08BD07C328B71FC5
:10018800C628C728B728C928C92801300310BB0DBD
:10019800BC0DFF3E031DCA2837083902031DD628A7
:1001A80036083802031CD928DA28E2283608B802AB
:1001B8003708031CB903B9023B14E22801300310C5
:1001C800B70CB60CFF3E031DE3280130BD02031D2A
:1001D800EE28EF28C928F128F1283C08B701B7070D
:1001E8003B08B601B607F828080083120313320843
:1001F80031040319002901293729B5010314B50D64
:10020800112901300310B10DB20DFF3E031D06295F
:100218000130F5007508B5071129B21F14291529F1
:1002280005291729172932083402031D1D29310809
:100238003302031C2029212928293108B302320856
:10024800031CB403B402282901300310B20CB10C0A
:10025800FF3E031D29290130B502031D3429352924
:100268001729372937293408B201B2073308B101F1
:10027800B1073E29080083120313B1010314B10D1D
:10028800B20104303202031C4A294B294D296C293A
:100298006C293108870032083F3E84008313000828
:1002A800203E8400000886000310B10D4230F5009E
:1002B800F50B5C2964000130F500750883120313FF
:1002C800B20704303202031C6A296B294D296C29B4
:1002D80008000B110130F0007008F807013085069E
:1002E8007808023A031D79297A298329043085067A
:1002F800F8010130F6070318F70A0030F7073C3019
:1003080081007408FF0073088A0072088400710E67
:100318008300FE0E7E0E0900F601F701F801BF0109
:10032800C001C101C20183133130FD000130FE005C
:10033800BC30FF00203084000A128A11AD210A1255
:100348008A1183010A128A1115287E088A007F08FB
:1003580082000A128A11A9210A128A118000840ACD
:1003680004087D0603190034FF0A0319FE0AAD29A3
:10037800C034F934A434B034993492348234F83423
:100388008034903488348334C634A13486348E342F
:02039800FF3430
:02400E0039FF78
:00000001FF
